:1000E600758901758CFF758A9CD2AFD2A9D28CD244
:0400F60090D29522ED
:0F00FA00750908750808C291D292C293D2942258
:0F010900750912750817D291C292C293D294222F
:0F01180075091E750812D291C292D293C2942219
:0F012700E4F509750814C291D292C293D29422C2
:0F013600750917750812C291D292D293C2942202
:0F01450075091275081ED291C292D293C29422EC
:0F015400750914E4F508C291D292C293D2942295
:0F016300750908750808D291C292D293C29422EE
:10000E0020A01220A10F20A40C20A50920A20620BA
:10001E00A3031200FA30A40C20A50920A20620A3E7
:10002E000312011830A10F20A40C20A50920A2064E
:10003E0020A30312010930A01220A10F20A40C202E
:10004E00A50920A20620A30312012720A00C20A19F
:10005E000920A40630A50312014520A00F20A10CF3
:10006E0020A40920A30630A20312013620A01220DC
:10007E00A10F20A40C20A50920A20630A303120173
:10008E005430A01230A10F30A40C30A50930A206B6
:07009E0030A30312016322ED
:080003001200E612000E80FB62
:03000B000200A54B
:1000A500C0E0C0D0050B050AE50BD395095004D275
:1000B500908002C290E50BB41F05B290750B00E568
:1000C5000AD395085004D2958002C295E50AB41F5B
:1000D50005B295750A00758CFF758A9CD0D0D0E065
:0100E50032E8
:0300000002017288
:0C017200787FE4F6D8FD75810B020003D5
:00000001FF
